:100000000C942A000C943F000C943F000C943F0089
:100010000C943F000C943F000C943F000C943F0064
:100020000C943F000C943F000C943F000C943F0054
:100030000C943F000C943F000C943F000C943F0044
:100040000C943F000C943F000C943F000C943F0034
:100050000C943F0011241FBECFE5D8E0DEBFCDBF1A
:1000600011E0A0E6B0E0ECE9F4E102C005900D92E9
:10007000A037B107D9F70E9441000C944C0A0C94A8
:1000800000005F926F927F928F929F92AF92BF9289
:10009000CF92DF92EF92FF920F931F93DF93CF9354
:1000A000CDB7DEB7E2970FB6F894DEBF0FBECDBF77
:1000B0001BB888E18AB984EA80BD10BC87E189B9A0
:1000C00017B885E886B95E010894A11CB11C22E32B
:1000D000622E712C90E6892E90E0992E8FE3582E97
:1000E0005F9BFECF8BB18C7129F08CB15D9BFECFF5
:1000F0005CB8F6CF8CB1833599F786B1806586B947
:10010000349BFECF64B175B180E090E00E9452054F
:1001100020E030E040E05FE30E94790320E030E03F
:1001200040EA50E40E94A60320E030E040E85AE3B1
:100130000E94A6036B017C010E94FE042DB73EB70E
:100140002A5030400FB6F8943EBF0FBE2DBF0DB7FA
:100150001EB70F5F1F4FEDB7FEB7B282A182F80145
:10016000738262829582848277836683882777FD93
:100170008095982F0E94A0049B01AC01C701B60195
:100180000E94480320E030E048EC52E40E94A603BD
:100190000E94FE04F801718760870E949E07F501A6
:1001A0002DB73EB7265F3F4F0FB6F8943EBF0FBE48
:1001B0002DBF04C05D9BFECF8CB931968081882312
:1001C000C9F78ECF8150F0F7089581509040E8F73D
:1001D00008958AB38E608ABB8AB38F708ABB8BB353
:1001E000846F8BBBDB9882E08150F0F7D99A81E075
:1001F0008150F0F799B3907FD99882E08150F0F761
:10020000D99A81E08150F0F789B3D99882958F709F
:10021000892B08958AB38E608ABB8AB38F708ABB9C
:100220008BB38C6F8BBB82E08150F0F7D99A81E061
:100230008150F0F799B3907FD99882E08150F0F720
:10024000D99A81E08150F0F789B3D99882958F705F
:10025000892B08950E94E90087FDFCCF089582E074
:100260008150F0F7D99A81E08150F0F7D99808953C
:100270001F93182F0E942A018AB38E6F8ABB8BB3FB
:1002800081708BBB9BB3812F807F892B8BBB0E949E
:100290002F018BB381708BBB8BB31295107F812B99
:1002A0008BBB0E942F011F9108951F93182F0E944E
:1002B0002A018AB38E6F8ABB8BB381708BBB8BB3E1
:1002C0008860912F907F892B8BBB0E942F018BB36D
:1002D00081708BBB8BB388601295107F812B8BBB99
:1002E0000E942F011F91089581E00E943801089516
:1002F00082E00E9438010895882311F48CE001C047
:100300008EE0860F0E94380108958AB38E6F8ABBF3
:100310008EEF95E381509040E8F78BB381708BBBF3
:100320008BB380638BBB0E942F0182EC9EE08150D7
:100330009040E8F70E942F018CE590E081509040BA
:10034000E8F70E942F018CE590E081509040E8F79B
:10035000DC980E942F018CE590E081509040E8F7F6
:1003600088E20E94380186E00E9438010E947401F0
:1003700081E061E00E947C010895823060F4603188
:1003800050F490E0029626E0880F991F2A95E1F735
:10039000860F0E94380108950E942A010E94E900F8
:1003A00090E036E0969587953A95E1F7817008954B
:1003B0000E942A010E94E9008F7308950E9455014E
:1003C0000895CF93DF93EC0103C021960E9455015D
:1003D00088818823D1F7DF91CF910895CF93DF9360
:1003E000EC0102C00E945501FE01219684918823F0
:1003F000C9F7DF91CF910895A0E0B0E0E2E0F2E02C
:100400000C946707DC012B01FA019C91923008F4EF
:1004100039C1EB018881823008F433C1943069F42A
:10042000843009F02FC111969C91119789819817FA
:1004300009F428C1A8E6B0E025C1843009F421C13F
:100440008230A9F4923009F01DC19A01AD0188E013
:10045000EA010990AE01E90109929E018150C1F7BC
:10046000E201898111969C918923818308C1923090
:1004700009F407C112962D903C901397EB018A81E5
:100480009B811496AD90BD90CD90DC901797EC8039
:10049000FD800E811F819101281B390BB90137FFA7
:1004A00004C066277727621B730B603271050CF05E
:1004B00061C0121613066CF537014801062E04C000
:1004C00096948794779467940A94D2F721E030E069
:1004D00040E050E004C0220F331F441F551F6A95AF
:1004E000D2F721503040404050402E213F21402340
:1004F0005123211531054105510521F021E030E05E
:1005000040E050E079018A01E628F72808291929F6
:100510003CC0232BD1F1260E371E35014601062E95
:1005200004C096948794779467940A94D2F721E054
:1005300030E040E050E004C0220F331F441F551F3D
:100540006A95D2F721503040404050402A213B214B
:100550004C215D21211531054105510521F021E096
:1005600030E040E050E059016A01A628B728C828C9
:10057000D9280BC0821593052CF01C01AA24BB249A
:10058000650103C0EE24FF24870111969C91D201DE
:1005900011968C91981709F445C0992339F0A80158
:1005A00097012A193B094C095D0906C0A60195016E
:1005B0002E193F09400B510B57FD08C011823382A1
:1005C000228224833583468357831DC081E0818343
:1005D0003382228288279927DC01821B930BA40B8C
:1005E000B50B84839583A683B7830DC0220F331F79
:1005F000441F551F2483358346835783828193810B
:100600000197938382832481358146815781DA0162
:10061000C9010197A109B1098F5F9F4FAF4FBF4338
:1006200028F30BC0918333822282EA0CFB1C0C1D41
:100630001D1DE482F5820683178383E08083248175
:1006400035814681578157FF1AC0C901AA2797FDF6
:10065000A095BA2F81709070A070B0705695479594
:1006600037952795822B932BA42BB52B84839583C9
:10067000A683B78382819381019693838283DF016E
:1006800001C0D201CD01CDB7DEB7E2E10C94830702
:10069000A0E2B0E0EEE4F3E00C94730769837A83A0
:1006A0008B839C832D833E834F835887E9E0EE2E16
:1006B000F12CEC0EFD1ECE010196B7010E94EF0653
:1006C0008E010F5E1F4FCE010596B8010E94EF0606
:1006D0008A8991E089278A8BC701B801AE01475EFC
:1006E0005F4F0E94FC010E941A06A096E6E00C945F
:1006F0008F07A0E2B0E0EFE7F3E00C9473076983A3
:100700007A838B839C832D833E834F835887F9E0C4
:10071000EF2EF12CEC0EFD1ECE010196B7010E94CA
:10072000EF068E010F5E1F4FCE010596B8010E94A5
:10073000EF06C701B801AE01475E5F4F0E94FC01A2
:100740000E941A06A096E6E00C948F07A0E2B0E0A3
:10075000ECEAF3E00C94670769837A838B839C83CC
:100760002D833E834F835887CE010196BE01675F7C
:100770007F4F0E94EF06CE010596BE016F5E7F4F50
:100780000E94EF069985923088F089898230C8F0FE
:10079000943019F4823051F404C0843029F492303A
:1007A00081F488E690E0C6C0923049F420E09A8552
:1007B0008A89981321E02A87CE010996BBC082302E
:1007C00049F420E09A858A89981321E02A8BCE018A
:1007D0004196B0C02D843E844F8458886D887E88B1
:1007E0008F88988CEE24FF248701AA24BB246501FE
:1007F00040E050E060E070E0E0E0F0E0C1018170D6
:100800009070892BE9F0E60CF71C081D191D9A0160
:10081000AB012A0D3B1D4C1D5D1D80E090E0A0E06A
:10082000B0E0E614F7040805190520F481E090E033
:10083000A0E0B0E0BA01A901480F591F6A1F7B1F51
:10084000AA0CBB1CCC1CDD1C97FE08C081E090E00C
:10085000A0E0B0E0A82AB92ACA2ADB2A3196E03201
:10086000F10549F0660C771C881C991C5694479436
:1008700037942794C3CFFA85EA892B893C898B85E5
:100880009C85280F391F2E5F3F4F17C0CA0181700A
:100890009070892B61F016950795F794E79480E0A6
:1008A00090E0A0E0B0E8E82AF92A0A2B1B2B769505
:1008B0006795579547952F5F3F4F77FDE7CF0CC062
:1008C000440F551F661F771F17FD4160EE0CFF1C7C
:1008D000001F111F21503040403090E0590790E038
:1008E000690790E4790760F32B8F3C8FDB01CA0125
:1008F0008F779070A070B07080349105A105B1051C
:1009000061F447FD0AC0E114F1040105110529F065
:10091000405C5F4F6F4F7F4F40781A8EFE1711F08B
:1009200081E08A8F4D8F5E8F6F8F78A383E0898FF0
:10093000CE0149960E941A06A096E2E10C94830724
:10094000A8E0B0E0E6EAF4E00C9470079B01AC018B
:1009500083E08983DA01C9018827B7FD8395992748
:10096000AA27BB27B82E211531054105510519F4D9
:1009700082E089833AC08823A9F0203080E03807DC
:1009800080E0480780E8580729F460E070E080E0E4
:100990009FEC30C0EE24FF248701E21AF30A040B17
:1009A000150B02C079018A018EE1C82ED12CDC82A0
:1009B000CB82ED82FE820F831887C801B7010E94A7
:1009C000CB0501971816190684F4082E04C0EE0C06
:1009D000FF1C001F111F0A94D2F7ED82FE820F83C5
:1009E0001887C81AD90ADC82CB82BA82CE01019656
:1009F0000E941A062896E9E00C948C07ACE0B0E05F
:100A0000E4E0F5E00C94770769837A838B839C8319
:100A1000CE010196BE016B5F7F4F0E94EF068D8174
:100A2000823061F1823050F1843021F48E8188234C
:100A300051F12EC02F81388537FD20C06E812F31B6
:100A400031051CF06623F9F023C08EE190E0821B93
:100A5000930B29853A854B855C8504C0569547954F
:100A6000379527958A95D2F76623B1F05095409532
:100A7000309521953F4F4F4F5F4F0EC020E030E043
:100A800040E050E009C02FEF3FEF4FEF5FE704C0B9
:100A900020E030E040E050E8B901CA012C96E2E0E5
:100AA0000C949307A8E0B0E0E8E5F5E00C946F073C
:100AB0007B018C01611571058105910519F482E0B6
:100AC000898360C083E089838EE1C82ED12CDC82CB
:100AD000CB82ED82FE820F831887C801B7010E9486
:100AE000CB05FC013197F7FF3BC0222733272E1B94
:100AF0003F0B57016801022E04C0D694C794B794E7
:100B0000A7940A94D2F740E050E060E070E081E002
:100B100090E0A0E0B0E004C0880F991FAA1FBB1F9F
:100B20002A95D2F70197A109B1098E219F21A0230F
:100B3000B1230097A105B10521F041E050E060E04C
:100B400070E04A295B296C297D294D835E836F8380
:100B500078878EE190E08E1B9F0B9C838B8312C065
:100B6000309781F00E2E04C0EE0CFF1C001F111FE9
:100B70000A94D2F7ED82FE820F831887CE1ADF0A1D
:100B8000DC82CB821A82CE0101960E941A06289638
:100B9000EAE00C948B07EF92FF920F931F937B0177
:100BA0008C0180E0E81680E0F80681E0080780E02C
:100BB000180788F48FEFE816F1040105110531F0EC
:100BC00028F088E090E0A0E0B0E017C080E090E07E
:100BD000A0E0B0E012C080E0E81680E0F80680E017
:100BE000080781E0180728F088E190E0A0E0B0E075
:100BF00004C080E190E0A0E0B0E020E230E040E01E
:100C000050E0281B390B4A0B5B0B04C01695079567
:100C1000F794E7948A95D2F7F701E059FF4F808166
:100C2000281B310941095109C9011F910F91FF90FA
:100C3000EF900895DF92EF92FF920F931F93FC01C4
:100C4000E480F58006811781D1808081823048F46C
:100C500080E090E0A0E1B0E0E82AF92A0A2B1B2B03
:100C6000A5C0843009F49FC0823021F4EE24FF2413
:100C7000870105C0E114F1040105110519F4E0E054
:100C8000F0E096C0628173819FEF623879070CF0C3
:100C90005BC022E83FEF261B370B2A3131052CF0D1
:100CA00020E030E040E050E02AC0B801A701022E69
:100CB00004C076956795579547950A94D2F781E0D9
:100CC00090E0A0E0B0E004C0880F991FAA1FBB1FEE
:100CD0002A95D2F70197A109B1098E219F21A0235E
:100CE000B1230097A105B10521F081E090E0A0E0DB
:100CF000B0E09A01AB01282B392B4A2B5B2BDA0190
:100D0000C9018F779070A070B07080349105A105F3
:100D1000B10539F427FF09C0205C3F4F4F4F5F4FAB
:100D200004C0215C3F4F4F4F5F4FE0E0F0E02030C8
:100D3000A0E03A07A0E04A07A0E45A0710F0E1E07B
:100D4000F0E079018A0127C06038710564F5FB0184
:100D5000E158FF4FD801C7018F779070A070B07035
:100D600080349105A105B10539F4E7FE0DC080E49A
:100D700090E0A0E0B0E004C08FE390E0A0E0B0E03D
:100D8000E80EF91E0A1F1B1F17FF05C016950795D1
:100D9000F794E794319687E016950795F794E794D2
:100DA0008A95D1F705C0EE24FF248701EFEFF0E02C
:100DB0006E2F679566276795902F9F77D794DD24D0
:100DC000D7948E2F8695492F462B582F5D29B70132
:100DD000CA011F910F91FF90EF90DF900895FC01E1
:100DE000DB01408151812281622F6F7770E0221FE9
:100DF0002227221F9381892F880F822B282F30E0F2
:100E0000991F9927991F11969C93119721153105C8
:100E1000A9F5411551056105710511F482E037C04E
:100E200082E89FEF13969C938E9312979A01AB01E1
:100E300067E0220F331F441F551F6A95D1F783E0E7
:100E40008C930DC0220F331F441F551F12968D9196
:100E50009C911397019713969C938E931297203031
:100E600080E0380780E0480780E4580758F314967C
:100E70002D933D934D935C93179708952F3F310524
:100E800079F4411551056105710519F484E08C93DD
:100E9000089564FF03C081E08C9312C01C9210C0BF
:100EA0002F57304013963C932E93129783E08C93E8
:100EB00087E0440F551F661F771F8A95D1F770642E
:100EC00014964D935D936D937C93179708952F928D
:100ED0003F924F925F926F927F928F929F92AF92CA
:100EE000BF92CF92DF92EF92FF920F931F93CF9317
:100EF000DF93CDB7DEB7CA1BDB0B0FB6F894DEBFAE
:100F00000FBECDBF09942A88398848885F846E84D3
:100F10007D848C849B84AA84B984C884DF80EE801D
:100F2000FD800C811B81AA81B981CE0FD11D0FB626
:100F3000F894DEBF0FBECDBFED010895AEE0B0E086
:100F4000E4EAF7E00C9475070D891E898F89988D66
:100F500097FF02C080E090E801979E838D831A83FB
:100F6000098386E08C839E01255E3F4FCE0101966A
:100F7000698D7A8DA9010E94CF074D815E8157FD51
:100F80000AC02F813885421753070CF49A01020FCB
:100F9000131FF80110822E96E4E00C949107ABE049
:100FA000B0E0E5EDF7E00C9467073C012B015A0136
:100FB000FC0117821682838181FD03C06FEF7FEFF2
:100FC000C6C19AE0892E1E010894211C311CF30130
:100FD0002381F20123FD859123FF81912F01882335
:100FE00009F4B2C1853239F423FD859123FF819143
:100FF0002F01853229F490E0B3010E94C209E7CFA6
:10100000982FFF24EE249924FFE1FF15D0F09B32A6
:1010100069F09C3228F4903259F0933291F40EC06A
:101020009D3249F0903369F441E024C052E0F52A42
:1010300084E0F82A28C098E0F92A25C0E0E1FE2AD9
:1010400022C0F7FC29C0892F80538A3070F4F6FE45
:1010500005C0989C902C1124980E15C0E89CE02C9B
:101060001124E80EF0E2FF2A0EC09E3229F4F6FCAD
:101070006BC140E4F42A07C09C3619F450E8F52A05
:1010800002C0983649F4F20123FD959123FF919116
:101090002F01992309F0B8CF892F8554833018F098
:1010A0008052833038F444E050E0A40EB51E5FE374
:1010B00059830FC0933631F0933779F0933509F0A7
:1010C00056C020C0F5018081898342E050E0A40E23
:1010D000B51E610101E010E012C0F501C080D180B1
:1010E000F6FC03C06FEF7FEF02C0692D70E042E0B5
:1010F00050E0A40EB51EC6010E94B7098C015FE73F
:10110000F52214C0F501C080D180F6FC03C06FEF5A
:101110007FEF02C0692D70E042E050E0A40EB51EE2
:10112000C6010E94AC098C0150E8F52AF3FE07C005
:101130001AC080E290E0B3010E94C209EA948E2DA9
:1011400090E008171907A8F30EC0F601F7FC859187
:10115000F7FE81916F0190E0B3010E94C209E11096
:10116000EA94015010400115110579F7EAC0943650
:1011700011F0993669F5F7FE08C0F501208131813B
:101180004281538184E090E00AC0F5018081918121
:101190009C01442737FD4095542F82E090E0A80E33
:1011A000B91E9FE6F92257FF09C05095409530952A
:1011B00021953F4F4F4F5F4FE0E8FE2ACA01B9012A
:1011C000A1012AE030E00E94EE09D82ED21840C0DA
:1011D000953729F41F2D1F7E2AE030E01DC01F2DFA
:1011E000197F9F3661F0903720F4983509F0ACC034
:1011F0000FC0903739F0983709F0A6C004C028E036
:1012000030E00AC0106114FD146020E130E004C039
:1012100014FD166020E132E017FF08C0F50160817F
:1012200071818281938144E050E008C0F5018081A2
:101230009181BC0180E090E042E050E0A40EB51E38
:10124000A1010E94EE09D82ED2188FE7F82EF122C4
:10125000F6FE0BC05EEFF522D91438F4F4FE07C099
:10126000F2FC05C08FEEF82202C01D2D01C0192D21
:10127000F4FE0DC0FE01ED0DF11D8081803319F4E7
:1012800099EEF92208C01F5FF2FE05C003C08F2D42
:10129000867809F01F5F0F2DF3FC14C0F0FE0FC01D
:1012A0001E1510F09D2C0BC09D2C9E0C911A1E2D0E
:1012B00006C080E290E0B3010E94C2091F5F1E15C4
:1012C000C0F304C01E1510F4E11A01C0EE2404FF9F
:1012D0000FC080E390E0B3010E94C20902FF1DC06D
:1012E00001FD03C088E790E00EC088E590E00BC0E8
:1012F000802F867891F001FF02C08BE201C080E26E
:10130000F7FC8DE290E0B3010E94C20906C080E3C1
:1013100090E0B3010E94C2099A94D914C0F3DA9400
:10132000F101ED0DF11D808190E0B3010E94C20931
:10133000DD20A9F706C080E290E0B3010E94C20957
:10134000EA94EE20C1F743CEF30166817781CB01A9
:101350002B96E2E10C948307FC01059061507040EC
:101360000110D8F7809590958E0F9F1F0895FC016E
:101370006150704001900110D8F7809590958E0FC4
:101380009F1F08950F931F93CF93DF938C01EB0161
:101390008B8181FF1BC082FF0DC02E813F818C811C
:1013A0009D812817390764F4E881F9810193F98355
:1013B000E88306C0E885F985802F0995892B31F4EB
:1013C0008E819F8101969F838E8302C00FEF1FEF56
:1013D000C801DF91CF911F910F910895FA01AA27BB
:1013E000283051F1203181F1E8946F936E7F6E5F68
:1013F0007F4F8F4F9F4FAF4FB1E03ED0B4E03CD016
:10140000670F781F891F9A1FA11D680F791F8A1FF8
:10141000911DA11D6A0F711D811D911DA11D20D05F
:1014200009F468943F912AE0269F11243019305D19
:101430003193DEF6CF010895462F4770405D41930A
:10144000B3E00FD0C9F7F6CF462F4F70405D4A3357
:1014500018F0495D31FD4052419302D0A9F7EACF1F
:10146000B4E0A6959795879577956795BA95C9F74E
:1014700000976105710508959B01AC010A2E069441
:101480005795479537952795BA95C9F7620F731FFA
:0C149000841F951FA01D0895F894FFCF45
:10149C0025642E2564565100000000000000000059
:1014AC0000010202030303030404040404040404FF
:1014BC0005050505050505050505050505050505D0
:1014CC0006060606060606060606060606060606B0
:1014DC0006060606060606060606060606060606A0
:1014EC000707070707070707070707070707070780
:1014FC000707070707070707070707070707070770
:10150C00070707070707070707070707070707075F
:10151C00070707070707070707070707070707074F
:10152C00080808080808080808080808080808082F
:10153C00080808080808080808080808080808081F
:10154C00080808080808080808080808080808080F
:10155C0008080808080808080808080808080808FF
:10156C0008080808080808080808080808080808EF
:10157C0008080808080808080808080808080808DF
:10158C0008080808080808080808080808080808CF
:10159C0008080808080808080808080808080808BF
:00000001FF
